:03000000021430B7
:0C143000787FE4F6D8FD75812002147767
:101BB700121D6F121B7D1210F8121C6BD2AF121878
:0C1BC700D2121D75121B9A121B2280FB0B
:0817DC0041006C0041006D00AA
:101C9900538EBF53890F438910E4F58B758DDCC2D0
:061CA9008FD28ED2AB22A7
:101CD9005389F0438901E4F58A758C4CC28DD28C05
:031CE900D2A9225B
:031D6F00021CD97A
:03000B0002139E3F
:10139E00C0E0C0F0C083C082C0D075D000C006C00F
:0113AE000737
:1013AF00758C4C758A0090006CE004F0E0FF20E033
:1013BF000690006E7401F0EF5403700590006F04F7
:1013CF00F090006CE075F00A84E5F0700790007003
:1013DF0004F0B20090006CE064147036F0A3E004E7
:1013EF00F0900075E0FF7004D2A18020EFB4640488
:1013FF00C2A1801890006DE0FEC39F4002D2A1EE03
:10140F00C39464400790006DE4F0C2A19000717422
:02141F0001F0DA
:0F142100D007D006D0D0D082D083D0F0D0E03228
:03001B00020003DD
:07000300758A00758C4C3278
:101C54007D527C03ED1D70011C144C70F7EF1F7056
:061C6400011E144E70EA9F
:011C6A002257
:081D66007F027E0FDEFEDFFCB0
:011D6E002252
:101B7D0053877F759850438E40538EFE53890F4384
:0D1B8D008920758BFD758DFDC2ABD28E22B7
:101D3100538EF7759A50438E04759CDC438E1022A6
:0C1D4F00C2AC8F993099FDC299D2AC2231
:10199800900076EBF0A3EAF0A3E9F0900076E0FB84
:1019A800A3E0FAA3E0F9120BD36017900076A3E442
:1019B80075F001120CA2A9F0FA120BD3FF121D4FF9
:0319C80080D922A1
:101CFE0053AFFE8F9BE59A30E1FB539AFD75AF0112
:011D0E0022B2
:1019CB00900079EBF0A3EAF0A3E9F0900079E0FB4B
:1019DB00A3E0FAA3E0F9120BD36017900079A3E40C
:1019EB0075F001120CA2A9F0FA120BD3FF121CFE18
:0319FB0080D9226E
:031D7200021998BB
:1017E4004100740041007500410072004100731E05
:101B0300C3EF6480F8EB6480985004AB05800DD379
:0F1B1300ED6480F8EB6480984002AB07AF0322CB
:101CAF00EBC39F5004AB078009EBD39D4004AF05F6
:051CBF00AB07AF03229A
:10103B00900043120CD200000000900071E070038E
:10104B000210EE900074E07003121257121786AC68
:10105B0006AD07E4120B19E4FBFA79207841120A6A
:10106B0077900043120CC6900043E0FCA3E0FDA375
:10107B00E0FEA3E0FF120B52900072EFF020953FC1
:10108B00A3E0FCE4120B1EC004C005C006C0079011
:10109B000043E0FCA3E0FDA3E0FEA3E0FF90004CC7
:1010AB00120CC6D007D006D005D004120D03900049
:1010BB0075EFF0FB7D64E4FF121CAFEFF08007E4EB
:1010CB00900075F0D2A1900075E0900047F0900071
:1010DB0022E0FF121D4F900000E0FF121D4FE49025
:0C10EB000071F0900083E0B40402B295A4
:0110F70022D6
:100F5500C201E4FF900083E0FEB4080E900074E047
:100F650004F0E075F00784E5F0F0900074E0FD60B2
:100F750015EEB401067F01D201800B900083E0B429
:100F850002047FFFD201ED24FE602714603814604F
:100F95004914605A14606B2405600302102D9000FB
:100FA50074E024FFF582E434FFF583E02FFB7D64D4
:100FB5008062900074E024FFF582E434FFF583E05D
:100FC5002FFB7D0C804E900074E024FFF582E43405
:100FD500FFF583E02FFB7D1F803A900074E024FF2E
:100FE500F582E434FFF583E02FFB7D188026900021
:100FF50074E024FFF582E434FFF583E02FFB7D3CAC
:101005008012900074E024FFF582E434FFF583E05C
:101015002FFB7D3CE4FF121B03900074E024FFF5D9
:1010250082E434FFF583EFF03001031212FD9000E6
:0610350074E0FF0219FE49
:101A7D00900074E0701C309519900083E0FFB40164
:101A8D0007900073E004F022EFB40206900073E0BB
:031A9D0014F02220
:101B2200121919900083E0FF6003121D4F12103B3F
:0F1B3200120F55121A7D12163FE4900083F02215
:10001E000000000000000000002F0000000007009C
:10002E00070000147F147F1400242A7F2A12006216
:10003E0064081323003649552250000005030000C2
:10004E0000001C224100000041221C000014083E4A
:10005E0008140008083E0808000000A06000000810
:10006E000808080800006060000000201008040264
:10007E00003E5149453E0000427F40000042615122
:10008E004946002141454B31001814127F100027BC
:10009E0045454539003C4A4949300001710905037F
:1000AE0000364949493600064949291E00003636B0
:1000BE000000000056360000000814224100001413
:1000CE0014141414000041221408000201510906F0
:1000DE0000324959513E007C1211127C007F494971
:1000EE004936003E41414122007F4141221C007FA2
:1000FE0049494941007F09090901003E4149497AB0
:10010E00007F0808087F0000417F41000020404129
:10011E003F01007F08142241007F40404040007F95
:10012E00020C027F007F0408107F003E4141413ED9
:10013E00007F09090906003E4151215E007F091921
:10014E0029460046494949310001017F0101003F1E
:10015E004040403F001F2040201F003F4038403F9E
:10016E000063140814630007087008070061514902
:10017E00454300007F41410000552A552A55000095
:10018E0041417F0000040201020400404040404013
:10019E00000001020400002054545478007F4844AB
:1001AE00443800384444442000384444487F0038E2
:1001BE005454541800087E0901020018A4A4A47C0B
:1001CE00007F080404780000447D400000408084D5
:1001DE007D00007F102844000000417F4000007C1D
:1001EE0004180478007C0804047800384444443829
:1001FE0000FC242424180018242418FC007C080475
:10020E00040800485454542000043F444020003C4D
:10021E004040207C001C2040201C003C4030403CD4
:10022E00004428102844001CA0A0A07C0044645464
:10023E004C441414141414140000000000000000A8
:10024E000000000000000000000000F800000000A8
:10025E00000000333000000000100C06100C0600E9
:10026E00000000000000000040C07840C078400050
:10027E00043F04043F040400007088FC08300000B2
:10028E00001820FF211E0000F008F000E01800000A
:10029E0000211C031E211E0000F0088870000000C3
:1002AE001E2123241927211000000C12120C00000D
:1002BE000000000000000000000000E01804020032
:1002CE00000000071820400000020418E0000000A3
:1002DE000040201807000000404080F080404000A1
:1002EE000202010F01020200000000F000000000F7
:1002FE000101011F010101000000000000000000CB
:10030E0080B070000000000000000000000000003F
:10031E0000010101010101010000000000000000C8
:10032E000030300000000000000000008060180463
:10033E00006018060100000000E010080810E00040
:10034E00000F102020100F00001010F80000000009
:10035E000020203F20200000007008080888700050
:10036E0000302824222130000030088888483000D0
:10037E000018202020110E000000C02010F80000F0
:10038E0000070424243F240000F808888808080089
:10039E000019212020110E0000E01088881800009E
:1003AE00000F112020110E0000380808C838080070
:1003BE000000003F000000000070880808887000F0
:1003CE00001C222121221C0000E010080810E00071
:1003DE000000312222110F00000000C0C0000000FA
:1003EE00000000303000000000000080000000001F
:1003FE000000806000000000000080402010080017
:10040E0000010204081020004040404040404000DF
:10041E0004040404040404000008102040800000BA
:10042E000020100804020100007048080808F000BF
:10043E000000003036010000C030C828E810E0008F
:10044E000718272423140B000000C038E00000001A
:10045E00203C23020227382008F888888870000084
:10046E00203F202020110E00C03008080808380058
:10047E00071820202010080008F808080810E000CF
:10048E00203F202020100F0008F88888E808100070
:10049E00203F20202320180008F88888E808100044
:1004AE00203F200003000000C0300808083800007C
:1004BE0007182020221E020008F808000008F8087D
:1004CE00203F210101213F20000808F80808000004
:1004DE000020203F2020000000000808F808080037
:1004EE00C08080807F00000008F888C028180800AF
:1004FE00203F20012638200008F8080000000000E8
:10050E00203F20202020300008F8F800F8F80800DE
:10051E00203F003F003F200008F830C00008F808D8
:10052E00203F200007183F00E01008080810E000E8
:10053E000F10202020100F0008F808080808F000FF
:10054E00203F210101010000E01008080810E00022
:10055E000F18242438504F0008F8888888887000B7
:10056E00203F2000030C3020007088080808380057
:10057E000038202121221C00180808F8080818004D
:10058E000000203F2000000008F808000008F808CE
:10059E00001F202020201F000878880000C838087F
:1005AE00000007380E010000F80800F80008F800F7
:1005BE00033C0700073C0300081868808068180891
:1005CE0020302C03032C30200838C800C83808000F
:1005DE000000203F2000000010080808C83808005E
:1005EE002038262120201800000000FE0202020002
:1005FE000000007F40404000000C30C000000000B2
:10060E00000000010638C00000020202FE000000D9
:10061E00004040407F00000000000402020204007F
:10062E0000000000000000000000000000000000BC
:10063E0080808080808080800002020400000000A4
:10064E00000000000000000000008080808000009C
:10065E000019242222223F2008F80080800000008A
:10066E00003F112020110E0000000080808000004D
:10067E00000E112020201100000000808088F8005C
:10068E00000E112020103F2000008080808000008E
:10069E00001F222222221300008080F088888818F2
:1006AE000020203F202000000000808080808000FD
:1006BE00006B94949493600008F800808080000092
:1006CE00203F210000203F2000809898000000006D
:1006DE000020203F2020000000000080989800009D
:1006EE0000C08080807F000008F8000080808000BD
:1006FE00203F24022D302000000808F800000000E2
:10070E000020203F2020000080808080808080009C
:10071E00203F20003F20003F80800080808000002E
:10072E00203F210000203F200000808080800000BC
:10073E00001F202020201F008080008080000000ED
:10074E0080FFA12020110E0000000080808080001C
:10075E00000E112020A0FF8080808000808080000D
:10076E0020203F212000010000008080808080003A
:10077E000033242424241900008080E080800000AF
:10078E000000001F202000008080000000808000FC
:10079E00001F202020103F2080808000008080805D
:1007AE0000010E30080601008080008000808080ED
:1007BE000F300C030C300F00008080008080800012
:1007CE000020312E0E31200080808000008080803D
:1007DE0080818E70180601000080808080808000ED
:1007EE000021302C2221300000000000807C02020B
:1007FE0000000000003F404000000000FF0000002D
:10080E0000000000FF0000000002027C80000000DB
:10081E000040403F000000000006010102020404F7
:10082E00000000000000000000028282828282FE30
:10083E00828282828202000000000000000000001E
:10084E000000000000000000404040404040407F5B
:10085E0040404040404040000000000000000000CA
:08086E00000000000000000082
:101BEF00EF4E60157D087C07ED1DAA0470011C4A9D
:091BFF0070F6EF1F70EA1E80E78A
:011C080022B9
:10195E00F583E5822CF582E43583F583E493FF7DF0
:01196E000177
:10196F00ED6004D2838002C283C287E4FEC280EF9F
:10197F0030E704D2818002C281D280EF25E0FF0ED2
:08198F00EEB408E9D287D2830F
:01199700222D
:101AE300AC07ED24B0FFE4FD12196FEC54F0C454BD
:101AF3000F4410FF12196FEC540F4401FF02196FCA
:101D0F00E4FD7F8D12196F7F1412196F7FAF0219C7
:011D1F006F54
:101D2000E4FD7F8D12196F7F1012196F7FAE0219BB
:011D30006F43
:101A2D00E4FCEC24B0FFE4FD12196FE4FF12196F12
:101A3D007F1012196FE4FB7D01E4FF12196F0BEBA0
:081A4D00B480F40CECB408DADB
:011A5500226E
:06171E00AA07A905AF03B4
:10172400E4FCEF24E0FBEAD3947F4004E4FA0909E3
:10173400AF02AD01121AE3E4FC75F010EBA42CF532
:1017440082E435F0F583E5822446F582E5833402AC
:101754001219680CECB408E1AF02E904FD121AE3B3
:10176400E4FC75F010EBA42CF582E435F0F583E588
:1017740082244EF582E58334021219680CECB40815
:02178400E12260
:071B4100900084EFF0A905FC
:101B48007F017E00AD0119ED600C900084E0FD7C02
:061B580000120C3B80EEC0
:011B5E002264
:0E11A80090005AEFF0A3EDF0A3EAF0A3EBF0F5
:1011B600E4900062F0900060F090005EE0FF900026
:1011C60060E0FEC39F4003021256C3EF9E14FD7FEC
:1011D6000A121B4190005CE0FCA3E0FDCFCDCFCE10
:1011E600CCCE120C4D7C007D0A120C4D900061EDA8
:1011F600F0A3E0703090005EE014FF900060E0FE27
:10120600C39F5021A3E0701790005FE0C3138EF0D8
:10121600A4FF90005AE02FFFA3E0FD7B20802590DD
:1012260000627401F090005FE0C313FFA3E0FEEFDD
:101236008EF0A4FF90005AE02FFFA3E0FD9000611E
:10124600E02430FB12171E900060E004F00211BF8C
:011256002275
:10183100900043EFF0A3EDF0A3EBF0A3EAF0A3E9EE
:01184100F0B6
:10184200E4A3F0900045E0FBA3E0FAA3E0F9A3E0F3
:10185200F582758300120BECFB6027900043E0FFDA
:10186200A3E0FD12171E900043E02408F0E0D39499
:10187200784007E4F0A3E02402F0900048E004F08E
:0218820080C123
:011884002241
:04188500A907AA0500
:10188900E4900085F0121AE3E4FCEB75F040A4241F
:1018990036F582E4340812195E900085E004F00CF4
:1018A900ECB410E6AF01EA04FD121AE3E4FCEB75AF
:1018B900F040A42456F582E4340812195E9000859C
:0818C900E004F00CECB410E6A1
:0118D10022F4
:0A154500900050EFF0900052EBF020
:10154F00E4900057F0A3F0900053E0FF54077008A9
:10155F00EF131313541F800A900053E01313135407
:10156F001F04900059F0900059EDF0900053E0FFE8
:10157F00900059E0FDC39F5040900050E0FF121AB9
:10158F00E3E0FC900052E0FFECC39F502490005426
:10159F00E0FBA3E0FAA3E0F9A3E475F001120CA2BB
:1015AF0085F082F583120BECFF7D0112196F0C8011
:0915BF00D2900059E004F080B262
:0115C8002200
:1010F800D2827F647E00121BEFC2827F647E001260
:101108001BEFD282E4FD7FAE12196FE4FF12196F54
:101118007F1012196F7F4012196F7F8112196F7F2C
:10112800CF12196F7FA112196F7FC812196F7FA68E
:1011380012196F7FA812196F7F3F12196F7FD31290
:10114800196FE4FF12196F7FD512196F7F8012197A
:101158006F7FD912196F7FF112196F7FDA12196F29
:101168007F1212196F7FDB12196F7F4012196F7F80
:101178002012196F7F0212196F7F8D12196F7F1459
:1011880012196F7FA412196F7FA612196F7FAF1201
:10119800196F7FAF12196F121A2DE4FDFF021AE3BF
:0D000E00E4F5C7F5C5F5C675C380F5C4223D
:101C3C0075C78275C5018FC4EEF5C375C65A75C6D6
:071C4C00A500AFC212000E5B
:011C5300226E
:101C230075C78275C5028FC4EEF5C3AF058FC27544
:091C3300C65A75C6A50002000E98
:101CC40075C78275C5038FC4EEF5C375C65A75C64C
:051CD400A50002000E56
:1015C900900044EBF0A3EAF0A3E9F0A3ECF0A3ED5B
:0115D900F021
:1015DA00E490004BF0A3F0900049E0FEA3E0FF1274
:1015EA001CC4E4A3F0A3F0900047E0FEA3E0FF9040
:1015FA00004BE0FCA3E0FDC39FEC9E503790004AED
:10160A00E02DFF900049E03CFE900044E0FBA3E09F
:10161A00FAA3E0F990004BA3E0F5828C83120BEC5D
:10162A00FD121C2390004CE004F070BB90004BE0CC
:04163A0004F080B385
:01163E002289
:1016B000900063EBF0A3EAF0A3E9F0A3ECF0A3ED54
:0116C000F039
:1016C100E490006AF0A3F090006AF0A3F090006645
:1016D100E0FEA3E0FF90006AE0FCA3E0FDC39FEC05
:1016E1009E5039900069E02DFF900068E03CFE12A9
:1016F1001C3C900063E0FBA3E0FAA3E0F990006AD0
:10170100E0FCA3E0F5828C83EF120C1990006BE0F2
:0C17110004F070B990006AE004F080B1B0
:01171D0022A9
:101C6B00E4900043F07B017A007943900049F0A3A4
:071C7B00F07D01FC0215C918
:101B5F004E6F77202054656D703A20202027004764
:0E1B6F006F616C2054656D703A2020202700B5
:0A17F400C10041007C0041007D00AF
:101B9A00121A2D7BFF7A1B795F7D04E4FF1218313C
:0D1BAA007BFF7A1B796E7D06E4FF02183187
:10163F0090007CE0FF900072E0FE6F602BEE75F083
:10164F000A842430FB7D047F5412171E900072E031
:10165F0075F00A84E5F02430FB7D047F5C12171EC1
:10166F00900072E090007CF090007DE0FF9000739E
:10167F00E0FE6F602BEE75F00A842430FB7D067F51
:10168F005412171E900073E075F00A84E5F02430B1
:10169F00FB7D067F5C12171E900073E090007DF0BB
:0116AF002218
:100E3700E4900043F0ED7003020F51EFB407004058
:100E470003020F4F900E52F8282873020E67020E06
:100E57006A020E91020EB9020EE1020F05020F2A75
:100E6700020F51E4900043F0900043E0FFC3940465
:100E77004003020F5474062FF582E43400F583749F
:100E870020F0900043E004F080DE9000437405F00A
:100E9700900043E0FFC394074003020F5474062FEA
:100EA700F582E43400F5837420F0900043E004F009
:100EB70080DE9000437408F0900043E0FFC3940A7B
:100EC7004003020F5474062FF582E43400F583744F
:100ED70020F0900043E004F080DEE4900043F090BF
:100EE7000043E0FFC39402506474112FF582E43489
:100EF70000F5837420F0900043E004F080E1900057
:100F0700437403F0900043E0FFC39405503F74110E
:100F17002FF582E43400F5837420F0900043E00459
:100F2700F080E19000437406F0900043E0FFC39423
:100F370008501A74112FF582E43400F5837420F0F9
:0D0F4700900043E004F080E180001214BC33
:010F5400227A
:1019FE0030002B90007EE004F0E05401FEF0FD126A
:101A0E000E377B017A007906E4FD7F181218317BC0
:0E1A1E00017A0079117D027F20121831C2007A
:011A2C002297
:0E1D410080828486888A8C81838587898B8D39
:1017FE0047001C001A0B060505104B00063230314F
:10180E00352D31312D3133004B001131323A333019
:06181E0020323000000042
:061C0900C286C284D286EF
:101C0F00E4FEC284EF139285EFC313FFD2840EEE6E
:031C1F00B408EF17
:011C2200229F
:0B1D5B00121C09AF05121C0FC28622EB
:101AC200E4FD121C09E4FFEDC313FDC2843085035B
:101AD2004480FDD2840FEFB408EDC286C285AF0503
:011AE20022E1
:101257007BFF7A1D7948E4FC120BD3FF121AC27484
:101267001C2CF582E43400F583EFF0740129F9E4CE
:101277003AFA0CECB407E1900022E0FFC4540F7572
:10128700F00AA4FEEF540F2E900000F0900020E02B
:10129700FFC4540F75F00AA4FEEF540F2E900001FF
:1012A700F090001FE0FFC4540F75F00AA4FEEF543E
:1012B7000F2E900002F090001EE0FFC4540F75F04F
:1012C7000AA4FEEF540F2E900003F090001DE0FFDC
:1012D700C4540F75F00AA4FEEF540F2E900004F0CB
:1012E70090001CE0FFC4540F75F00AA4FEEF540FE2
:0512F7002E900005F03F
:0112FC0022CF
:1014BC009000067432F0A37430F0900022E0FDC46A
:1014CC00540F2430900008F0ED540F2430A3F0900A
:1014DC000020E0FDC4540F243090000BF0ED540FAD
:1014EC002430A3F090001FE0FDC4540F2430900072
:1014FC000EF0ED540F2430A3F090001EE0FDC45408
:10150C000F2430900011F0ED540F2430A3F0900014
:10151C001DE0FDC4540F2430900014F0ED540F2442
:10152C0030A3F090001CE0FDC4540F243090001741
:09153C00F0ED540F2430A3F0225D
:1012FD00900000E0900022F0900001E0900020F0BE
:10130D00900002E090001FF0900003E090001EF0AE
:10131D00900004E090001DF0900005E090001CF09E
:10132D00E4FC741C2CF582E43400F583E0FF75F0C9
:10133D000A84FE741C2CF582E43400F583EF75F0FD
:10134D000A84E5F0F0EEC454F0FF741C2CF582E431
:10135D003400F583E02FF00CECB407C6E4FD7F8E6E
:10136D00121D5B7BFF7A1D7941E4FC120BD3FF74D8
:10137D001C2CF582E43400F583E0FD121D5B740135
:10138D0029F9E43AFA0CECB407E17D807F8E021D59
:01139D005BF4
:031D750002125700
:08182400410083004100820A2B
:101C82007D527C03ED1D70011C144C70F7EF1F7028
:061C9200011E144E70EA71
:011C98002229
:1019190043B078E5B05478FB647860327F0A7E0082
:10192900121C82E5B054786B702AEBF4131313542C
:101939000F900083F0E5B0547864786017900082C6
:10194900E0601114F07F647E00121C8280E7900031
:0419590082740AF09A
:01195D002267
:04182C0041007F00F8
:071CEC00121CF3D2A07F01DE
:0B1CF300AE071FEE6004000080F62228
:101A5600D2D730D721C2A07FF0121CF37FF0121C20
:101A6600F3D2A07F3C121CF3A2A07FF0121CF37FDE
:071A7600B4121CF380DC2216
:101AA000E4FDFCEDC313FDC2A07F01121CEC30A0CD
:101AB00004ED4480FD7F3C121CF30CECB408E4AF51
:011AC0000520
:011AC1002202
:021BD300AD075C
:101BD500E4FCC2A07F01121CF3EDC313FD92A07FAC
:091BE5003C121CEC0CECB408E904
:011BEE0022D4
:1017860090007FE004F0E05401F06034121A567FB6
:10179600CC121BD37FBE121BD3121AA0AB07121A90
:1017A600A0EFAD03FCE4120B19E4FBFA7920783FB5
:1017B60012096E120B52900080EEF0A3EFF0800D2E
:1017C600121A567FCC121BD37F44121BD390008073
:0517D600E0FEA3E0FFAE
:0117DB0022EB
:1018D200900023120CD200000000900027120CD2BC
:1018E2000000000090002B120CD2000000009000BB
:1018F2002F120CD200000000900033120CD24100D3
:101902000000900037120CD20000000090003B1241
:071912000CD23F800000220F
:100D0300E4FBFA900023120CC690004CE0FCA3E035
:100D1300FDA3E0FEA3E0FF900027120CC69000277E
:100D2300E0F8A3E0F9A3E0FAA3E0FB900023E0FCE2
:100D3300A3E0FDA3E0FEA3E0FF12087990002B12CD
:100D43000CC690003FE0FCA3E0FDA3E0FEA3E0FFA0
:100D530090002BE0F8A3E0F9A3E0FAA3E0FB12086C
:100D63007D90003F120CC690003FE0FCA3E0FDA382
:100D7300E0FEA3E0FF900037E0F8A3E0F9A3E0FA78
:100D8300A3E0FB12096EC004C005C006C0079000B3
:100D93002BE0FCA3E0FDA3E0FEA3E0FF900033E023
:100DA300F8A3E0F9A3E0FAA3E0FB12096EA804A9F3
:100DB30005AA06AB07D007D006D005D00412087DDC
:100DC300C004C005C006C00790002FE0F8A3E0F9F7
:100DD300A3E0FAA3E0FB90002BE0FCA3E0FDA3E07B
:100DE300FEA3E0FF12087990003BE0F8A3E0F9A32B
:100DF300E0FAA3E0FB12096EA804A905AA06AB0753
:100E0300D007D006D005D00412087D120B52AA06D3
:100E1300AB07C3EA648094805003E4FAFB90002B91
:100E2300E0FCA3E0FDA3E0FEA3E0FFA3120CC6AE2B
:030E330002AF0308
:010E36002299
:10087600020BBEE86480F8E933E83360110460F0E7
:10088600ED33EC337009E8FCE9FDEAFEEBFF2204E8
:1008960060DED3EB9FEA9EE99DE8C2E78CF0C2F7E3
:1008A60095F0400CE8CCF8E9CDF9EACEFAEBCFFBAF
:1008B600120B8985D0F05804700320D5B3E8047074
:1008C600075002B2D5020BC892D5EC0460F7E4CC0F
:1008D600C0E0C398F8603B94186008400DD0E0FB78
:1008E600020BA0E4FBFAC9FC8028E830E406E4C960
:1008F600FBE4CAFCE830E305E4C9CACBFCE85407CC
:100906006010F8C3E913F9EA13FAEB13FBEC13FCD6
:10091600D8F130F52FC3E49CFCEF9BFFEE9AFEED79
:1009260099FDD0E0FBEF4E4D4C701222DB03020B1B
:10093600C5EC2CFCEF33FFEE33FEED33FDED30E777
:10094600EB020BA0EF2BFFEE3AFEED39FDD0E0FBFC
:1009560050130BBB0003020BC8ED13FDEE13FEEFA5
:0809660013FFEC13FC020BA0CF
:10096E00EC4D6011E8497017ED33EC3304600DE483
:10097E00FCFFFEFD22E933E8330470F8020BBE12D1
:10098E000B8958046009E4CC2481500628500902D2
:10099E000BC8284003020BC5C0E0EB4A7044B98077
:1009AE0006D0E0FB020BB4EF4E701CBD8008EBFFCF
:1009BE00EAFEE9FD80EBE98DF0A4FEE5F0020A57B0
:1009CE00E9CDF9EAFEEBFFEF89F0A4FCE5F0CE8964
:1009DE00F0A42EFFE435F0CD89F0A42DFEE435F021
:1009EE008067EF4E7005BD80D780C3EF8BF0A4AC4F
:1009FE00F0EE8BF0A42CFCE435F0F8EF8AF0A42C8A
:100A0E00E5F038FCE433CB8DF0A42CFCE5F03BF89C
:100A1E00EE8AF0A42CFCE5F038F8E433CF89F0A48C
:100A2E002CFCE5F038CF3400CE89F0A42FFFE5F092
:100A3E003EFEE433C98DF0A42EFEE5F039CD8AF0EA
:100A4E00A42FFFE5F03EFEE43DFD33D0E0FB500762
:100A5E000BBB000F020BC8EC2CFCEF33FFEE33FE8A
:060A6E00ED33FD020BA0B8
:100A7400020BC8EC5D046005E859047003020BBE68
:100A8400120B89580460F6EC4860F2EC7004FDFE29
:100A9400FF22C860DB2481C85009C3986002500655
:100AA400020BC59850CAF582E9294B4A7005AB82FE
:100AB400020BB475F0007C1A7880C3EF9BEE9AEDBC
:100AC40099400DC3EF9BFFEE9AFEED99FDE842F0CD
:100AD400DC23ACF0D0E0FFD0E0FED0E0FDAB822020
:100AE400E7101BEB60BAEC2CFCEF33FFEE33FEEDAA
:100AF40033FD020BA0E803F830E705C0F075F00001
:100B0400EF2FFFEE33FEED33FD40B830E7C280AA8D
:100B140075F020800E75F010800575F0087D007E5C
:100B2400007F003392D530D503120CB8EC3340105B
:100B3400EF33FFEE33FEED33FDEC33FCD5F0ED2265
:0E0B4400E5F0247EA2D513CC92E7CDCEFF22A1
:100B5200EDD2E7CD33EC3392D524814006E4FFFE9B
:100B6200FDFC22FCE4CFCECDCC24E0501174FF80FA
:100B7200EDC3CC13CCCD13CDCE13CECF13CF047097
:070B8200F030D5DE020CB8D3
:100B8900E9D2E7C933E833F892D5EDD2E7CD33ECB2
:070B990033FC5002B2D5222B
:100BA000EC30E7100FBF000C0EBE00080DBD0004B6
:100BB0000BEB6014A2D5EB13FCED92E7FD2274FF62
:100BC000FCFDFEFF22E480F8A2D574FF13FC7D80BB
:030BD000E480EFCF
:10143C00021BB7E493A3F8E493A34003F68001F2F4
:10144C0008DFF48029E493A3F85407240CC8C333B1
:10145C00C4540F4420C8834004F456800146F6DF80
:10146C00E4800B01020408102040809017DCE47E1D
:10147C00019360BCA3FF543F30E509541FFEE49375
:10148C00A360010ECF54C025E060A840B8E493A33C
:10149C00FAE493A3F8E493A3C8C582C8CAC583CA67
:1014AC00F0A3C8C582C8CAC583CADFE9DEE780BE1F
:0118300000B7
:100BD300BB010689828A83E0225002E722BBFE0220
:090BE300E32289828A83E4932253
:100BEC00BB010CE58229F582E5833AF583E02250BE
:100BFC0006E92582F8E622BBFE06E92582F8E22208
:0D0C0C00E58229F582E5833AF583E4932221
:100C1900F8BB010DE58229F582E5833AF583E8F011
:100C2900225006E92582C8F622BBFE05E92582C8BD
:020C3900F222A5
:100C3B00EF8DF0A4A8F0CF8CF0A428CE8DF0A42ECD
:020C4B00FE2287
:100C4D00BC000BBE0029EF8DF084FFADF022E4CC8B
:100C5D00F875F008EF2FFFEE33FEEC33FCEE9DEC54
:100C6D00984005FCEE9DFE0FD5F0E9E4CEFD22ED9A
:100C7D00F8F5F0EE8420D21CFEADF075F008EF2FE4
:100C8D00FFED33FD4007985006D5F0F222C398FDD5
:050C9D000FD5F0EA2272
:100CA200A3F8E0C5F025F0F0E58215827002158305
:060CB200E0C838F0E82262
:0E0CB800C3E49FFFE49EFEE49DFDE49CFC224D
:0C0CC600ECF0A3EDF0A3EEF0A3EFF022A1
:100CD200A8828583F0D083D082120CE9120CE9122B
:100CE2000CE9120CE9E473E493A3C583C5F0C58350
:100CF200C8C582C8F0A3C583C5F0C583C8C582C86C
:010D020022CE
:00000001FF
